{
  "contractName": "Faucet",
  "abi": [
    {
      "stateMutability": "payable",
      "type": "receive",
      "payable": true
    },
    {
      "inputs": [
        {
          "internalType": "uint256",
          "name": "withdraw_amount",
          "type": "uint256"
        }
      ],
      "name": "withdraw",
      "outputs": [],
      "stateMutability": "nonpayable",
      "type": "function"
    }
  ],
  "bytecode": "0x608060405234801561001057600080fd5b50610153806100206000396000f3fe6080604052600436106100225760003560e01c80632e1a7d4d1461002e57610029565b3661002957005b600080fd5b34801561003a57600080fd5b50610055600480360381019061005091906100f0565b610057565b005b662386f26fc1000081111561006b57600080fd5b3373ffffffffffffffffffffffffffffffffffffffff166108fc829081150290604051600060405180830381858888f193505050501580156100b1573d6000803e3d6000fd5b5050565b600080fd5b6000819050919050565b6100cd816100ba565b81146100d857600080fd5b50565b6000813590506100ea816100c4565b92915050565b600060208284031215610106576101056100b5565b5b6000610114848285016100db565b9150509291505056fea264697066735822122039dab82af00db04e09977f2174ad69d0caf963140d8c382d5683c9cd2817742964736f6c634300080d0033",
  "immutableReferences": {},
  "source": "pragma solidity >=0.8.0 <0.9.0;\r\n\r\ncontract Faucet {\r\n    // Accept any incoming amount\r\n    receive() external payable {}\r\n\r\n    // Give out ether to anyone who asks\r\n    function withdraw(uint withdraw_amount) public {\r\n        // Limit withdrawal amount\r\n        require(withdraw_amount <= 0.01 ether);\r\n\r\n        // Send the amount to the address that requested it\r\n        payable(msg.sender).transfer(withdraw_amount);\r\n    }\r\n}",
  "sourcePath": "C:\\Users\\Kirtik Soni\\simple-faucet\\contracts\\Faucet.sol",
  "compiler": {
    "name": "solc",
    "version": "0.8.13+commit.abaa5c0e.Emscripten.clang"
  },
  "schemaVersion": "3.4.16",
  "updatedAt": "2023-11-04T19:06:24.639Z",
  "networkType": "ethereum",
  "devdoc": {
    "kind": "dev",
    "methods": {},
    "version": 1
  },
  "userdoc": {
    "kind": "user",
    "methods": {},
    "version": 1
  }
}